:200000000C9400010E944D000E944D000E944D000E944D000E944D000E944D000E944D00B6
:200020000E944D000E944D000E944D000E944D000E944D000E944D000E944D000E944D0048
:200040000E944D000E944D000E944D000E944D000E944D000E944D000E944D000E944D0028
:200060000E944D000E944D00FFFFFFFFFFFFFFFFFFFFFFFFFFFFFFFFFFFFFFFFFFFFFFFFBA
:20008000FFFFFFFFFFFFFFFFFFFFFFFFFFFFFFFFFFFFFFFFFFFFFFFFFFFF4FB67F906F9067
:2000A00066948894680C4FBE0895662061F04A2E5B2EA62DBB276D907C90B52DA42D6F92C2
:2000C0007F92662418950895FFFFFFFFFFFFFFFFFFFFFFFFFFFFFFFFFFFFFFFFFFFFFFFF53
:2000E000FFFFFFFFFFFFFFFFFFFFFFFFFFFFFFFFFFFFFFFFFFFFFFFFFFFFFFFFFFFFFFFF20
:2001000024130000100008000000090010000007381100007038AA382601703801B880B7DE
:200120000100FFFF054C0852454D454D424552003A20E7A681E6ADA2E7A7BBE999A4E7B372
:20014000BBE7B5B1E5AD9721004B45592000FFFFFFFFFFFFFFFFFFFFFFFFFFFFFFFFFFFF56
:20016000FFFFFFFFFFFFFFFFFFFFFFFFFFFFFFFFFFFFFFFFFFFFFFFFFFFFFFFFFFFFFFFF9F
:2001800000000000000000000000000000000000000000000000000000000000000000005F
:2001A00000000000000000000000000000000000000000000000000000000000000000003F
:2001C00000000000000000000000000000000000000000000000000000000000000000001F
:2001E0000000000000000000000000000000000000000000000000000000000000000000FF
:20020000A4B6BB2422243324662424BEA0EFADBFB7E0BEBFC0EFD6E00C94A2090000043F9A
:200220004B4559009A938A9388279927C101A091C000A7FF0C9455008091C6009A938A93AD
:200240008FEF9FEF0C9455001E0204454D495400A091C000A5FFFCCF8093C60089919991CD
:200260000C9455004A020321494FA3E3A093C400AA27A093C500A8E1A093C100A6E0A09305
:20028000C2000C945500660245646F4C49549A938A93FF91EF91EE0FFF1F85919591F79501
:2002A000E795EF93FF930C9455008802446E65787400FF91EF91BF91AF9111972CF43196FD
:2002C000EF93FF930C945500AF93BF93EE0FFF1FA591B591AF93BF930C945500AC02473F2D
:2002E0006272616E6368FF91EF91892B8991999161F03196EF93FF930C945500DE024662DF
:2003000072616E636800FF91EF91EE0FFF1FA591B591AF93BF930C945500FE0207455845B8
:2003200043555445959587958F939F93899199910C9455001C03044558495400BF91AF91CC
:200340000C94550036030121FC018991999191838083899199910C94550046030140FC0135
:20036000819191910C9455005C03024940008FDF1C0142D0B8DFC6018ADF1E013DD0B3DF48
:20038000C901FC01859195910C94550080DF1C0102C07DDF1E013CD0E2CF6A0303494340B3
:2003A00076DF1C0129D09FDFDF0171DF1E0124D09ADFE201FC01992784910C94550067DFA8
:2003C0001C0102C064DF1E0123D0C6C09C0306425546464552005BDF01002CD184DFF40174
:2003E00056DF80080C94550052DF00080C945500CE03044255463F00B2DF0AD12DD147DF9C
:20040000807F18D10C945500F203044255464000A6DFE1DFF2D03BDF7F000CD11DC10A0480
:200420000249210034DF1C01E7DF5DDF28022FDF1E01E2DF58DF27022ADF1E0190DF27DF09
:200440000080F8D050DF250208D01AD028D03BD04AC0200405464C55534819DF1E017FDF0F
:20046000C4D015DF807FE6D0C0D00E94D03FC5D0B2DFC3D00C94D73F540404404F4C440014
:2004800006DF1E016CDFA7DFC3D001DF807FD2D0B4D00C94CD097A0404214F4C4400A5D082
:2004A000F6DE807FC7D0F3DE1E01A7D0B1D057DFEEDE0100BFD0C7D0A0D046CF9804065347
:2004C000574954434800E3DE1E0149DFE0DE1C0146DFDDDE1E0138DFDADE1C0135CFBE0409
:2004E00004214E455700D3DE7E00A4D0D0DE1C0136DF71DFA8D028DFCADE1C0176D02FDF82
:20050000C6DE0080A0D079D01FCFE00405464C55534803D0D8DF01D0D6CFB9DE1E011FDFF1
:2005200064D0B5DE008086D0DEDE9D02B0DEFF7F81D0ADDE1E0108DF90CF50C00C05024310
:200540002100FC01899199918083899199910C9455003E0502434000FC01992780810C94D7
:200560005500540542523E009A938A93BF91AF919F918F91AF93BF930C945500640502528B
:2005800040009A938A93BF91AF919F918F918F939F93AF93BF930C9455007E05423E5200BF
:2005A000BF91AF918F939F93AF93BF93899199910C9455009C05035350409A938A93CE01EA
:2005C0000C945500B60503535021EC01899199910C945500C6050444524F50008991999136
:2005E0000C945500D605034455509A938A930C945500E605045357415000DC0189919991B5
:20060000BA93AA930C945500F405044F564552009A938A938A819B810C9455000A0602307A
:200620003C009923C1010CF401970C9455001E0603414E44A991B9918A239B230C94550095
:200640003006024F5200A991B9918A2B9B2B0C945500420603584F52A991B9918A279B2792
:200660000C945500540603554D2BA991B9918A0F9B1F9A938A9399278827881F0C9455002F
:20068000660645646F5641529A938A93FF91EF91EE0FFF1F859195910C9455008206052793
:2006A000424F4F54F1DF00019E06044241534500EBDF0401AA0603544D50E6DF0601B60677
:2006C000045350414E00E0DF0801C006033E494EDBDF0A01CC06042354494200D5DF0C0120
:2006E000D606042754494200CFDF0E01E20605274556414CC9DF1001EE0603484C44C4DFF0
:200700001201FA0607434F4E54455854BDDF1401040702435000B8DF1601120702445000EC
:20072000B3DF18011C07044C41535400ADDF1A01260702322A00880F991F0C945500320704
:2007400002322F00959587950C945500400707414C49474E454401968E7F0C9455004E07CB
:2007600002424C009A938A9380E299270C9455006007043F44555000082F092B11F09A935C
:200780008A930C945500720703524F548C0129913991899199913A932A931A930A930C940D
:2007A00055008807053244524F5089919991899199910C945500A40704324455500028DF9B
:2007C00027CFB807012B09911991800F911F0C945500C40706494E564552540080959095DD
:2007E0000C945500D407064E454741544500F6DF01960C945500E60707444E454741544522
:20080000EDDFCEDEEBDF43DD01002FDFADDEDBCFF807012D09911991081B190BC8010C9411
:200820005500120803414253E0DEFBDE5CDD1904DECF0C9455002408013D0EDF54DD240431
:2008400026DD00000C94550022DDFFFF0C945500380802553C00B3DFFFDEE3DE44DD330453
:20086000CCDEBCDEDECED6DFDCCE5208013CA7DFF3DED7DE38DD3E04B1DED3CECBDFD1CEB6
:200880006C08034D41589BDFF2DF2DDD4804B5DEA5CE8208034D494E92DFAFDEE8DF23DD1E
:2008A0005204ABDE9BCE94080657495448494E00AFDEB0DF75DEAEDF57DECDCFA8080655A3
:2008C0004D2F4D4F44007C01299139910991199140E15527000F111F221F331F551F2E1551
:2008E0003F05520518F003952E193F094A9589F73A932A93C8010C945500BE08054D2F4DF3
:200900004F4473DE8EDE71DE4BDEEDDC8B046FDF47DE76DF29DE44DE68DE83DEE4DC9204C9
:2009200030DE51DF21DECFDF1FDEDDDC9A0465DE5EDF63DE0C945500FC08042F4D4F4400AB
:2009400067DE6FDE5ADEDDCF3A09034D4F44F8DF45CE4A09012FF4DF50DE40CE54090355CA
:200960004D2A8C0189919991809FF00122273327909FF00D211D331D819FF00D211D331D17
:20098000919F200D311DCF019A938A93C9010C9455005E09012A04D021CE9409024D2A0068
:2009A0000EDF5ADE3EDEFCDD3FDF27DE3DDFD9DFDBDD99DCDC0424DF0C9455009C09052A4D
:2009C0002F4D4F44EDDDECDFCFDD9BCFBE09022A2F00F8DF12DE02CECE09053E434841526C
:2009E0000C94550002DEBEDE52DC7F0061DF7BDCFB040C945500F2DD4ADC5F000C94550005
:200A0000DA09054445505448D8DD41DCEE06F5DD01DF98CE020A045049434B0001968BDE64
:200A2000CCDDD1DE9CCC160A022B2100E6DDF0DD96DCC9DEE2DD88CC280A05434F554E540C
:200A4000FC010191CF019A938A93802F99270C9455003A0A0649434F554E5400C6DD019633
:200A6000CCDD9ECC540A04484552450059DE77CC660A03504144FADF0ADC4000A4CE720A2E
:200A8000035449422BDE02966ACC800A0840455845435554450063DC6FDE25DC500542DCB8
:200AA0000C9455008C0A05434D4F564579DD06C077DDC6DF66DD45DD57DD0196FADB5805B5
:200AC00074CEA60A0555505045520C9455008DDDDEDB6100DCDB7B00EBDE05DC7205D7DB15
:200AE0005F00A8DD0C945500C40A05554D4F564557DD07C055DDA4DFE8DF43DD22DD34DD17
:200B00000196D7DB7A0551CEEA0A0446494C4C0074DD46DD72DD03C052DE13DD0196C9DBEE
:200B20008C0543CE0A0B054449474954B0DB09006FDD9DDEACDB07007DDD45DEA8DB30006F
:200B400042CE260B0745585452414354A0DB000054DDB9DE52DDEACF440B023C23008BDFED
:200B6000CEDDF2CB5A0B04484F4C4400C8DDF7DB01973BDDC4DDE8DBE4CC660B012398DD38
:200B8000EEDBE4DFF3CF7C0B02235300F8DF2DDDAADBCB05FBCF0C945500880B0453494799
:200BA0004E003FDDA0DBD70572DB2D00DFDF0C9455009C0B02233E0011DDA1DDD0DB5BDFEC
:200BC00027DD28CEB40B037374720FDDE9DC2CDEC6DFDCDFC9DCE5DFEFCFC60B0348455805
:200BE00056DB100065DDB0CBDC0B07444543494D414C4DDB0A005CDDA7CBEA0B064449476E
:200C000049543F00CDDC43DB300004DE40DB0900FFDC2DDE68DB14063ADB0700FBDDE5DC03
:200C200036DB0A0024DE0FDDE0DC9EDC14CEFC0B074E554D4245523F3BDD91DBB1DC27DB6A
:200C40000000E6DCFDDEE4DC87DC21DB2400F5DD4ADB2F06C5DFD1DC0196CFDC0197D8DCA9
:200C60007BDC15DB2D00E9DD9BDCC7DC8ADCD2DDC4DC87DCA8DD80DD36DB5F06019790DCAC
:200C8000B4DC8EDC69DC14DD6ADBBCDF2CDB5806B4DC0EDD64DB7FDE96DD66DC019609DB98
:200CA00040069CDC6EDC1FDB5606A1DDA6DC06C05BDC5ADC7ADD79DDEADA000096DC54DC90
:200CC00074DD52DCF5DC40CB300C034B4559AADA0ADB67060C945500CA0C0553504143457F
:200CE00041DDB6CADA0C05434841525386DC58DC02C07BDCADDADDDA790670CCE60C065307
:200D00005041434553002EDDF1CFFE0C04545950450046DC03C094DE63DE9ADACADA8B060B
:200D20005DCC0C0D0549545950453ADC03C096DE57DE8EDABEDA970651CC240D02435200DD
:200D4000A6DA0D0085DAA3DA0A0082CA3C0D43646F240ADC09DC49DC48DCFC01EE0FFF1F25
:200D6000859195919927EEDC2EDD019619DC45DC17DCE1DC0C9455004E0D4324227CE9DF28
:200D80000C9455007A0D432E227CE3DF67DECDCF860D022E520004DC18DFE6DB39DC3ADD4C
:200DA000B2DFB7CF920D03552E52FADBD8DEEEDE03DFDADB2DDC2EDDA6DFABCFA60D02559A
:200DC0002E00CDDEE3DEF8DE8BDFA3CFBE0D012E6FDCC5DA5CDA0A003FDC85DAF006F1CF73
:200DE000F4DE7EDF96CFCE0D013FB9DAF1CFE80D05706172736561DCA7DA0ADCD1DBF5DBBC
:200E000072DA3E07019759DCA7DBACDC16DD6BDA1D07C6DBA7DCFCDB9FDBFCDC02DCDEDC29
:200E200062DA1C07019645DA0A079EDBD7DB2FDA0000DBDB0C94550097DBEADBDEDBB0DB32
:200E40003CDC8ADBE5DB88DBE5DC37DC85DB8ADCF4DC49DA2C07E5DB46DA3407019629DA7D
:200E60002007C3DB9DDB05C07FDBB8DBBEDB019697DBCEDBCFDC78DB77DBCCCCC9DB74DB5D
:200E8000C9CCF00D0550415253458ADBFBDD20DC66DA99DC23DC63DA1BDC61DABBDC64DB0E
:200EA000AADF16DCC3CD840E822E2800F0D92900ECDF2FCFA80E8128EAD92900E6DF75CCB1
:200EC000B60E815C5C00E3D90D00DFDF6ECCC20E04434841520046DCD8DF80DB3DCBD00E48
:200EE00005544F4B454E3EDCD0DFD1D91F00D4DCBDDD65DC26DB63DC66DC0196C8D9000095
:200F00007CDB1FDB019679DBF3DDB0CDE00E04574F524400BADFAADD52DC13DB50DC53DC83
:200F20000196B5D9000069DB0CDB019666DBBEDD9DCD0E0F054E414D453E90DDA8D91F00F6
:200F400079DB41DC08CC340F0553414D453FFADB27DB10C05DDB15DBEEDB35DC00DA58DBE9
:200F600010DBE9DB30DC03DA55DC06DCBCD9BA07FBDA34CB9ED9AA078AD900000C9455001C
:200F8000480F0466696E640038DB2FDBE5DA95DBDBD92BDBE4D904DB02962FDB26DBA3D994
:200FA000E30723DBE4D973D93FFF44DBEADA54DB9AD9DE0702966BD9FFFF04C002967DDB0A
:200FC000CED9C5DF05C0D0DA09DB17DB029715CB8AD9ED070497CBD9E1CFC6DAFFDA0DDB61
:200FE000FDDA029702DBA9DF08CB820F054E414D453F8CDBB4D9C8CFEC0F025E4800D0DA7B
:2010000007DBB2DAFADA04DB27DB6DD910083FD908001ED90197A6DB1BD939D9080018D920
:201020000C945500FA0F03544150DFDA11D9F0DA88DA01960C9455002610046B54415000E5
:20104000D4DA0D9750D92A0808974DD929088ADBECCFD5CFC3DAD1DAC1DAC7CA3A10066104
:20106000636365707400D4DAAEDBD2DAA8DBF4DA3AD947082CDEB9DA75DBCCDB08D9FF0057
:20108000EADB31D94508D1DF01C0DADFEFCFA6DABFDAC0CB5E100645585045435400E3DFA9
:2010A00012DB52D99BCA9610055155455259EADCEED85000D8DF12DB47D990DAE8D80000A8
:2010C00007DB42C9A810054552524F5209DEB8DC20DEDDD83F00BCD80DD032DE1ADAC0EF4B
:2010E000D6E07BC0C6100C4552525F48414E444C494E47000C94540FE6100A414C4C4F570E
:201100005F424F4F54000C94700F0C945500FA104661626F72742200E6D893081ADE9EDCD3
:2011200004DEDBDF5AC015DE59CA10110A24494E54455250524554005CDF1EDBD4D8AF0840
:2011400016D9A5D8400076DAE7DF0D20636F6D70696C65206F6E6C79E5D80C9455006CDDDA
:20116000C2D8B4080C945500B1CF2C11815B8FD83811C0DAE9C86C11032E4F4B88D838119F
:20118000B9DAEDD85ADBAFD8C908FFDD0420E5A5BD20D6CD7811063F535441434B0034DC0C
:2011A00040DABADF0A20756E646572666C6F77000C9455009611044556414C0094DE15DA53
:2011C000CBD991D8E70896DA66DCE9DFF7CF06DAD5CFB611045155495400A0EFADBFB7E0AF
:2011E000BEBF55D8000780DAAFD8C1DF50D80D002FD84DD806002CD85ADFE0DFF7CFD411AF
:20120000012771DEF6DE6FD866080C9455005ECF00120444554D50003AD80700C1D990DD40
:20122000E4D935D80500C1DD5BDD31D80F00B8D907DC2DD80300B9DD3CD8180951DDD5D9CE
:2012400026D81000E7DA23D8100063DD32D80F09C5C91212054944554D5019D80700A0D9AB
:201260006FDDC3D914D80500A0DD3ADD10D80F0097D9F4DB0CD8030098DD1BD8390930DD2D
:20128000B4D905D81000C6DA02D810004EDD11D83009A4C95412022E5300B6DB81D903C0F9
:2012A00070D9BCDB95DD05D850096FDD04203C7370000C9455009612053E4E414D4570D9CD
:2012C00025DA4DD892D90FD86F098FD936DE59D9C3D909D86F0902974AD815D8620944D94D
:2012E0007DC9B812032E4944B9DB0E9447011F00A1D91BCDE41205574F52445321DD06DAB9
:201300002ED83ADA0E9473018D096FD9E9DCECDF02972DD80E94830181090C945500F612E4
:20132000026869000DDD31DD1133323865466F72746820444556302E373602CD20130443B9
:201340004F4C44000E9435010E94470100014DD90E94CD090E9447011E0101D891D8B3D877
:201360000E9447011E010E94AF018AD8ACD81DDA0E94830897D98FDB30CF3E130545524101
:2013800053450C94D03F7C130557524954450C94D73F8813045245414400DC018991999155
:2013A000FC018991999160E805900D926150E1F70C945500941302312B0001960C94550061
:2013C000B61302312D0001970C945500C21302322B0002960C945500CE1302322D000297BB
:2013E0000C945500DA13013E29913991281739070DC0E61302443E000991199129913991B7
:20140000E990F990E016F10628073907C10124F019F001970C9455000C945500F4130244C0
:201420002B0029913991E990F99049915991240F351F8E1D9F1D3A932A930C9455001E1498
:2014400002442D0029913991E990F99049915991421B530BE80AF90A5A934A93C7010C94ED
:201460005500401405414C4C4F540E9490030C94160564140649414C4C4F54000E948B03DF
:201480000C9416057414012C0E948B030E94AF010E94F5020E94E9090E948B030E94A401B6
:2014A0000C94120286140563616C6C2C0E9447010E940E94440AE8CFA614895B434F4D5011
:2014C000494C455D0E9401090E94A203EFCFBA1447434F4D50494C450E94B4020E949B036E
:2014E0000E94F5020E94B7010E94440A0E94E9090E94F5020E94B7010E94440A0E94E909FE
:201500000E94A2030E94D0020C945500D014874C49544552414C0E94470147010E94560A6F
:20152000B3CF0E1503242C220E94470122000E948A070E94F5020E94AC020E94A2030E9480
:20154000D0020E94F5020E94AF010E94440A0E94E9090E945901A10A0C94EE022415854213
:201560004547494E0E948B030C94AF015E1583464F520E944701D0020E94560AF3CF6E15E8
:20158000844E455854000E94470159010E94560A0E94A20379CF801585554E54494C0E946B
:2015A000470173010E94560A0E94A2036DCF981585414741494E0E94470183010E94560AE8
:2015C0000E94A20361CFB015824946000E94470173010E94560A0E94B20A0E944701020014
:2015E0004DCFC8158541484541440E94470183010E94560A0E94B20A0E94470102000C94C0
:201600003E0AE41586524550454154000E94DB0A0E94B20A0E94A2030E94FD020C941202C1
:201620000416845448454E000E94B20A0E94A2030E94FD020C9412022216834146540E94AB
:20164000EE020E94F50A0E94B20A0C94FD023A1684454C5345000E94F50A0E94FD020C941D
:20166000140B5016855748494C450E94E60A0C94FD0264168641424F525422000E94470132
:201680008C080E94560A0E94940A0C9455007416822422000E944701BF060E94560A0E94DA
:2016A000940A0C9455009016822E22000E944701C5060E94560A0E94940A0C945500A81675
:2016C000073F554E495155450E94F5020E94F9070E947301770B0E94C50607207265446506
:2016E00066200E9408030E9420050E9489060C94EE02C01603242C6E0E94F5020E94AC02AF
:201700000E947301A80B0E94640B0E9496030E94AF010E94440A0E948B030E94AF010E944E
:2017200096030E94A4010E94F5020E94AC020E94A2030E94D0020E94F5020E94AF010E9498
:20174000440A0E94E9090E9459019B0B0C94EE020E94BF0605206E616D650C946608F41630
:201760000824434F4D50494C45000E94F9070E94BC030E947301CC0B0E94B7010E94470100
:2017800080000E941A030E947301C80B0C9492010E94A2030C94560A0E941C060E947301CD
:2017A000D30B0C948B0A0C9466086017054F564552540E9496030E94AF010E9486030C94A4
:2017C000A401AC17C13B0E94470108950E94440A0E94B7080C94D90BC417015D0E94470126
:2017E0006A170E947A030C94A401DA17013A0E9473070E947C0B0C94EE0BEC1709494D4D0B
:201800004544494154450E94470180000E9496030E94AF010E94B7010E9423030E949603C8
:201820000E94AF010C941202FC1706435245415445000E9473070E947C0B0E94D90B0E9468
:20184000470144030E94560A0E9490030E94AF010C94440A2A1808434F4E5354414E5400CE
:201860000E9473070E947C0B0E94D90B0E94470144030E94560A0C94440A5618085641521D
:201880004941424C45000E94190C0E94470102000C94350A7C180327434E0E9473070E944C
:2018A000F9070E94DF030E94730107090E94EE020C9455000C9466089618084F50454E5FA2
:2018C000494E54000E9447015F000E94AC020E94470180000E9423030E9447015F000E9467
:2018E000A1020E94470164000E94D0020E945901760C0E9447015F000E94AC020E94470182
:201900007F000E941A030E9447015F000E94A1020C945500BA180454455354000E949603B5
:201920000E94AF010E94F5020E94E8060E94BC030E9467060E94B2030E941D040E941A03E3
:201940000E947301B00C0E94F5020E9470060E9474090E94EF090E94B7010E948301920C2D
:201960000C94550016190442494735000E9447018E110E94B7010E944701A66E0E941D0494
:201980000E947301C50C0E949E010E944701A66E0E9447018E110E9412020E9447010020D8
:2019A0000E94470190110E9412020E948902089566190455544638000E9447018E110E9447
:2019C000B7010E944701E5A50E941D040E947301EB0C0E949E010E944701E5A50E9447016C
:2019E0008E110E9412020E944701BD200E94470190110E9412020E9489020895B219044EA3
:201A00004F4F50000895FE190852454D454D424552000E94470100010E94C1090E9447018C
:201A200000010E94470100010E94C7090E94470180010E94C1090E94470180010E9447011C
:201A400080010E94C7090895081A0453544F50000E94A0060E94C50612E8AB8BE68C89208A
:201A600045534320E7B9BCE7BA8C20000E9467060E94F5020E9447010D000E941D040E94BE
:201A800073014C0D0E9447012E000E9428010E94470107000E9428010E9447011B000E9433
:201AA0001D040E947301360D08954A1A085641524941424C45000E94430C0E9489020895A2
:201AC000AC1A0B44455054485F434845434B0E9444032001C21A013A0E94F70B0E94040593
:201AE0000E94670D0E94A4010895D61A813B0E9404050E94670D0E94AF010E940A040E94DB
:201B00007301990D0E94A0060E94C506214552524F52233031203A20E7A88BE5BC8FE7B567
:201B200090E6A78BE4B88DE5B08DE7A8B1210E94280D0E9447010C940E94440A0E94470116
:201B400055000E94440A0E94B7080E94D90B0E9489020895EC1A0828666F726765742900A9
:201B60000E94BC030E947301C30D0E94EF090E94F5020E948B030E94A4010E94B7010E9478
:201B800086030E94A4010C945500561B06466F72676574000E944D0C0E94B00D0E94EE02B6
:201BA0000C9455008C1B07646F5441424C450E94B4020E949B030C945500A61B04414E4521
:201BC00057000E9473070E94F9070E94BC030E9473010A0E0E94F5020E9496030E94A40146
:201BE0000E9486030E94A4010E94470104000E94E3030E94F5020E94B7010E9490030E9433
:201C0000A4010E94E9090E948B030E94A4010E9483011B0E0E947C0B0E94D90B0E9447012C
:201C2000D70D0E94560A0E9490030E94AF010E94440A0E9489020C945500BC1B0549445567
:201C40004D500E9458030E94AF010E94FD020E94F0050E94A0060E94C506066964756D7086
:201C600020000E94F5020E9447010F000E94D0020E94F5020E9447010F000E941A030E944B
:201C8000470103000E94D5060E94DD090E945901380E0E94EE020E94470107000E94D002BB
:201CA0000E94A0060E94F5020E94470105000E94D5060E9470060E9447010F000E94D00252
:201CC0000E942E050E94470103000E94D5060E945901600E0E9470060E94F5020E944701C0
:201CE00010000E940A040E9447010F000E94D0020E942E050E94F5020E94B2030E94370415
:201D00000E9408030E944701FE000E94F4090E9423030E947301910E0E94EE020E94470196
:201D20005F000E9428010E945901780E0E94EE020E945901500E0E94EE020E9458030E94DA
:201D4000A4010C9455003C1C0444554D50000E9458030E94AF010E94FD020E94F0050E942E
:201D6000A0060E94C506062064756D7020000E94F5020E9447010F000E94D0020E94F502B5
:201D80000E9447010F000E941A030E94470103000E94D5060E94DD090E945901BE0E0E942F
:201DA000EE020E94470107000E94D0020E94A0060E94F5020E94470105000E94D5060E94DF
:201DC00070060E9447010F000E94D0020E9420050E94470103000E94D5060E945901E60EFF
:201DE0000E9470060E94F5020E94470110000E940A040E9447010F000E94D0020E94200554
:201E00000E94F5020E94B2030E9437040E9408030E944701FE000E94F4090E9423030E9457
:201E20007301170F0E94EE020E9447015F000E9428010E945901FE0E0E94EE020E945901CC
:201E4000D60E0E94EE020E9458030E94A4010C945500481D034B45590E94470106000E94F0
:201E600028010E9467060C945500541E043F4B4559000E94470106000E9428010E94120127
:201E80000C9455006C1E08434F4E5354414E54000E94300C0E9489020C945500861E084560
:201EA00052524F52233032000E94A0060E94C5061E4552524F52233032203A20E98187E625
:201EC0009CAAE5AE9AE7BEA9E68C87E4BBA421000E94280D0C9455009E1E04574149540023
:201EE0000E94A0060E94C506293320E7A792E585A7E68C892045534320E98DB5E58FAFE933
:201F000080B2E585A5E7ACA6E5BC8FE7B3BBE7B5B1200E94470103000E94D0020E94C1028F
:201F20000E94E8060E944701F4010E94D0020E944701FF020E94D0020E9459019C0F0E9416
:201F40005901970F0E94390F0E947301AD0F0E94A0060E94EE020E94ED080E944701080062
:201F60000E9428010E94470108000E9428010E9459018E0F0C945500DA1E0A6C6567616C44
:201F80005F6E616D65000E94F5020E94470101000E941A030E947301D20F0E94470100001D
:201FA0000E949E010E94F5020E942E050E9447011F000E941A030E94BC030E947301FD0F27
:201FC0000E94E3090E94D0020E942E050E94470121000E9437040E947301F70F0E94B402CE
:201FE0000E94D5030E94470100000E949E010E945901E40F0E94830102100E94EE020E94E1
:20200000470100000C9455007A1F053E6E616D650E94F5020E94470120000E940A040E9411
:20202000DF030E949D070E941D040E94730123100E94C30F0E94730123100E94FD020E946C
:20204000EE020E949E010E94E9090E94DF030E941D040E9473010F100E942C030C94550079
:202060000A2004234F5554000E9444032201622008305F234F55545F21000E9434100E94CF
:20208000AF010E9411030E94730148100E949E010E94470100000E9434100E94A4010C9474
:2020A00055007020024352000E943D100E94A0060C945500A42007234F55545F2B210E9445
:2020C00034100E94AF010E9411030E9473016C100E94EE020E949E010E94470148000E947B
:2020E00008030E9434100E94AF010E94E3030E9437040E9473017E100E9454100E943410A8
:202100000E9416050C945500B62009315F234F55545F2B210E94470101000E945F100C943C
:2021200055000A210B4455505F234F55545F2B210E94F5020E945F100C94550024210454CA
:20214000595045000E9498100E9489060C9455003E210549545950450E9498100E949506AB
:202160000C94550052210553504143450E948A100E9470060C9455006621012E0E94AF0531
:202180000E94C6050E94DC050E94B6100E94A2100C9455007A210524545950450E942E05C3
:2021A0000E94AC100C9455009621032E49440E942E050E9447011F000E941A030E94B61052
:2021C0000E94AC100C945500AA21053E4C494E4B0E94EF090C945500CA21054C494D495472
:2021E0000E9444032401DA210E4455505F322B5F535741505F4940000E94F5020E94E90974
:202200000E94FD020E94B7010C945500E82108494E535F43414C4C000E9444030E940E229D
:2022200008494E535F4A554D50000E9444030C94202207494E535F5245540E944403089585
:20224000322205284C4954290E9444038E02422206284E45585429000E944403B202502269
:2022600007285A4252414E290E944403E602602206284252414E29000E9444030603702238
:20228000082841424F52542229000E944403181180220428242229000E9444037E0D9222D4
:2022A00004282E2229000E9444038A0DA0220528434F4E290E9444038806AE2202482E0042
:2022C0000E94AF050E94C6050E94DC050E94A2100C945500BC2202412E000E94A2030E9437
:2022E000AF050E94BF050E94BF050E94BF050E94BF050E94BF050E94BF050E94DC050E94A1
:20230000A2100C945500D62203482E520E94D0020E94AF050E94C6050E94DC050E94B40241
:202320000E9408030E940A040E9483060E94A2100C945500082301510E94470122000E94A1
:2023400028010C9455003623042E535452000E94470106000E9483060E94C506032E44429C
:202360000E942E050E94F5020E94BE100E94C506022C27000E94DF030E94AC100E94C5066E
:2023800001270E94E3030E94AB030C9455004823052E4252414E0E9454100E94F5020E9446
:2023A0006D110E94FC100E94F5020E94470105000E9486110E94F0100E94AF010E94430453
:2023C0000E94F0100E94A4010C9455009023052E4E414D450E94F5020E945F090E94BC0314
:2023E0000E9473010B120E94F5020E94D0010E94470180000E941A030E94730107120E94A4
:20240000C5060A205B434F4D50494C455D000E94D7100E94B6100E94F5020E9424110E9403
:202420001D040E94730126120E94EE020E9454100E94F5020E946D110E94FC100E94470144
:2024400005000E9486110E94830198120E94F5020E9453110E941D040E9408030E94451167
:202460000E941D040E9423030E9408030E944C110E941D040E9423030E94730166120E946A
:20248000EE020E94F5020E94F5020E94D0010E94E9090E94A2030E94E3090E94D0020E9428
:2024A00054100E94F5020E946D110E94FC100E94470105000E9486110E9459014F120E942A
:2024C000EE020E94A7110E94830198120E94F5020E9434110E941D040E94730176120E945F
:2024E000EE020E94CB110E94830198120E94F5020E943C110E941D040E94730186120E9403
:20250000EE020E94CB110E94830198120E94F5020E942C110E941D040E94730196120E94E2
:20252000EE020E94CB110E94830198120E94EE020C945500CE230543414C4C3F0E940C11C6
:202540000E941D040C9455003625044A4D503F000E9415110E941D040C9455004A2504410A
:2025600044523E000E949B030C9455005E25065243414C4C3F000E94470100F00E941A0383
:202580000E94470100D00E941D040C9455006E2505524A4D503F0E94470100F00E941A0320
:2025A0000E94470100C00E941D040C9455009025045245543F000E941D110E941D040C94A3
:2025C0005500B02505524144523E0E944701FF0F0E941A030E94F5020E94470100080E9481
:2025E0001A030E947301F9120E94470100F00E9423030E949B030E9408030E94E3030C94E6
:202600005500C425042E494E53000E94F5020E9454100E946D110E94FC100E94F5020E94B8
:20262000470105000E9486110E94F5020E949E120E94F5020E9473012E130E94470102004D
:202640000E940E050E94B7010E94470105000E9486110E94C506052043414C4C0E940803E8
:202660000E94A8120E94F5020E94730148130E94470103000E940E050E94B7010E9447010E
:2026800005000E9486110E94C50604204A4D50000E9423030E94730183130E94FD020E94CD
:2026A000FC100E94F5020E94470105000E9486110E94B2120E94F5020E945A110E941D047E
:2026C0000E9473017A130E94EE020E94FC100E94F5020E94470105000E9486110E94C506E9
:2026E000062028434F4E29000E94BE100E94FD020E949E010E94EA110E94FD020E94A81297
:202700000E948301FA130E94F5020E94BB120E94F5020E94730196130E94470106000E9494
:2027200083060E94C506055243414C4C0E9408030E94CB120E94F5020E947301A9130E94F7
:20274000470106000E9483060E94C50604524A4D50000E9423030E947301EA130E94FD02DA
:202760000E9408030E94E5120E94F5020E945A110E941D040E947301DB130E94EE020E9472
:20278000FC100E94DF030E94E5120E94470105000E9486110E94470105000E9486110E941E
:2027A000C506062028434F4E29000E94BE100E94FD020E949E010E94F5020E94A2030E9423
:2027C000BE100E94EA110E94FD020E94CB120E948301FA130E94DB120E94F5020E947301FD
:2027E000FA130E94470106000E9483060E94C506035245540C9455000426052E48454144F2
:202800000E94F5020E94E8100E9454100E94F5020E946D110E94B7010E94F5020E944701E9
:2028200005000E9486110E94470106000E9483060E94C506056C696E6B200E94A2030E9416
:2028400060110E94F5020E94F5020E94D0010E9447011F000E941A030E94A2030E94D002DF
:202860000E9454100E94F5020E946D110E94FC100E94470105000E9486110E945901301483
:202880000E94EE020E94470106000E9483060E94C50605434F4445200E942E050E94F50270
:2028A0000E94470180000E941A030E9473015E140E94C50606494D4544442B000E94F502CD
:2028C0000E94470140000E941A030E9473016E140E94C50606434F4D504F2B000E94470171
:2028E0001F000E941A030E94F5020E94F9050E94AF050E94C6050E94DC050E94A2100E9485
:20290000F0050E94C506022C27000E94AC100E94C50601270C945500FA27052E424F445996
:202920000E94F5020E94A2030E94F0100E94A4010E9405130E947301AA140E94F0100E94FC
:20294000AF010E9408030E94A2030E9437040E948301AD140E94470100000E947301981463
:202960000E9454100E946D110C9455001A290528534545290E9458030E94AF010E94FD02D6
:202980000E94F0050E94F5020E945F090E94BC030E947301CD140E9400140E94F5020E94B4
:2029A000A2030E94F0100E94A4010E9490140E9458030E94A4010C9455006E290353454593
:2029C0000E9401090E94F5020E945F090E94D0010E94F5020E944701C0000E941A030E9491
:2029E0007301F4140E9454100E94F5020E94470140000E941A030E94730107150E94C50634
:202A00000D20636F6D70696C652D6F6E6C790E94470180000E941A030E94730117150E94A4
:202A2000C5060A20696D6D656469617465000E94BA140C945500BC29032445510E94C60380
:202A40000E9408030E941D040E94730156150E94D0020E94830150150E9408030E94D00166
:202A60000E9408030E94AC020E942C030E94730148150E94B4020E94D5030E944701000059
:202A80000E94F5020E94D0020E94E3090E94FD020E94FD020E94DD090E94FD020E94DD09A8
:202AA0000E9459012C150E9483015C150E94D5030E94F5020E942C030C945500382A054DB5
:202AC000415443480E94FD020E9420050E94BC030E94730197150E94D0020E948301941508
:202AE0000E9408030E94D0010E9408030E94AC020E942C030E9473018C150E94B4020E9437
:202B0000D5030E94470100000E94F5020E94D0020E94E3090E94FD020E94FD020E94DD098E
:202B20000E94FD020E94DD090E94590170150E94EE020C945500BE2A05494E5354520E9445
:202B40002E050E9447013F000E941A030E94C6030E94FD020E9408030E94AC020E940A04A1
:202B60000E94F5020E9411030E947301C0150E94D5030E94EE020E94470100000E949E01E4
:202B80000E94D0020E94D0020E94D0020E94470100000E94B4020E94B4020E94FD020E94FC
:202BA000B4020E94D0020E94DF030E9462150E947301E2150E94C6030E94B4020E94FD02DD
:202BC0000E94D0020E94DD090E945901D3150E94D5030C945500382B05776F7264730E946D
:202BE000B2030E948A070E9486030E94AF010E94BC030E94730126160E94DF030E949F15E3
:202C00000E9473011F160E94F5020E94F5020E9454100E94470104000E94CB060E94F50237
:202C20000E94A2030E94BE100E94F5020E94D0010E94470103000E94CB060E94D7100E9446
:202C4000E8100E94B7010E948301F7150E94EE020C945500D82B0850494E3E4249544D000D
:202C60000E94470101000E94FD020E94D0020E9483013C160E949B030E9459013A160C94B0
:202C80005500562C025042000E9430160E94470123000C945500842C025043000E943016B2
:202CA0000E94470126000C945500982C025044000E9430160E94470129000C945500AC2CED
:202CC0000B4449474954414C524541440E94AC020E941A030C945500C02C085345545F424A
:202CE000495453000E94D0020E94C1020E94AC020E9423030E94B4020E94A1020C94550061
:202D0000DA2C08434C525F42495453000E94D0020E94EE030E94C1020E94AC020E941A03B8
:202D20000E94B4020E94A1020C945500022D05494E5055540E94DD090E9486160C94550082
:202D40002E2D064F5554505554000E94DD090E9472160C945500422D0448494748000E9445
:202D6000E9090E9472160C945500582D034C4F570E94E9090E9486160C9455006C2D06540E
:202D80004343523041000E94440344007E2D06544343523042000E94440345008E2D054F31
:202DA000435230410E94440347009E2D054F435230420E9444034800AC2D024D53000E9469
:202DC000BC030E947301F4160E94D0020E948301F1160E944701CB010E94D0020E9459014D
:202DE000EE160E945901E9160C945500BA2D075044365F50574D0E94D2160E94A1020E9463
:202E0000C3160E94AC020E94470183000E9423030E94C3160E94A1020E94470103000E9405
:202E2000CB160E94A1020C945500EE2D075044355F50574D0E94D9160E94A1020E94C316E8
:202E40000E94AC020E94470123000E9423030E94C3160E94A1020E94470103000E94CB161D
:202E60000E94A1020C9455002C2E1050574D5F434C4F434B5F53454C454354000E94CB164D
:202E80000E94A1020C9455006A2E0A5044365F50574D5F494F000E9473015E170E94C3163C
:202EA0000E94AC020E94470183000E9423030E94C3160E94A1020E9483016B170E94C316AA
:202EC0000E94AC020E9447017F000E941A030E94C3160E94A1020C9455008A2E0A5044353A
:202EE0005F50574D5F494F000E94730187170E94C3160E94AC020E94470123000E94230334
:202F00000E94C3160E94A1020E94830194170E94C3160E94AC020E944701DF000E941A03CD
:202F20000E94C3160E94A1020C945500DC2E07415245464F46460E94470100000E94230320
:202F40000C9455002E2F07414652415643430E94470140000E9423030C945500462F08526C
:202F600045534552564544000E94470180000E9423030C9455005E2F08494E5445524E4176
:202F80004C000E944701C0000E9423030C945500782F0841444D5558534554000E9447017A
:202FA0007C000E94A1020C945500922F044144454E000E94470180000E9423030C94550057
:202FC000AC2F0441445343000E94470140000E9423030C945500C22F0541444154450E9419
:202FE000470120000E9423030C945500D82F0441444946000E94470110000E9423030C942B
:203000005500EE2F0441444945000E94470108000E9423030C9455000430054144505332E5
:203020000E94470101000C9455001A300541445053340E94470102000C9455002C30054182
:20304000445053380E94470103000C9455003E3006414450533136000E94470104000C94DE
:203060005500503006414450533332000E94470105000C94550064300641445053363400D8
:203080000E94470106000C945500783007414450533132380E94470107000C9455008C3037
:2030A00006414443535241000E9447017A000E94A1020C945500A0300A41444849474842FD
:2030C000595445000E94470178000E94AF010C945500B8300941444C4F57425954450E9417
:2030E000470179000E94AF010C945500D4300A414E414C4F4752454144000E94A7170E94EA
:20310000CE170E9422180E94D9170E94E4170E9454180E9447017A000E94AC020E94470113
:2031200010000E941A030E94730189180E9462180C945500EE3002213D000E941D040E9415
:203140007301A8180E94470100000E948301AB180E944701FFFF0C94550036310750554C2C
:203160005345494E0E94470100000E941D040E947301C0180E94470101000E948301C31899
:203180000E94470100000E94C6030E94C6030E94470100000E94D0020E94DF030E9466166F
:2031A0000E94470103000E940E050E949D180E947301CC180E94DF030E94B4020E94DD09B8
:2031C0000E94D0020E9466160E94470103000E940E050E941D040E947301DA180E94D50376
:2031E0000E94EE020E94B4020E9447011B000E94CB040C9455005C310850554C53454F55B8
:2032000054000E94F5020E94470102000E94AB040E9447010A000E940A040E94FD020E949D
:20322000470150000E94AB040E94470104000E94CB040E940A040E94C6030E94C6030E941E
:20324000DF030E94DF030E94B8160E94AF160E94470102000E940E050E94D0020E94590120
:203260002E190E94B8160E94EE020C945500F83108544F4E455F534554000E944701000074
:203280000E94470100000E94470184000E94A1020E94470185000E94A1020E9447010A00E9
:2032A0000E94470181000E94A1020E94D0040E9447010F000E9481040E94FD020E94EE0295
:2032C0000E94D0020E944701FF7F0E94470102000E94D0040E94B4020E9481040E94F50298
:2032E0000E9447018A000E94A4010E94470188000E94A4010E94EE020C9455007032034BE3
:20330000485A0E944701E8030C945500FE3202485A000E94470101000C9455000E330B50F1
:2033200042315F544F4E455F494F0E947301A8190E94C3160E94AC020E94470123000E943D
:2033400023030E94C3160E94A1020E948301B5190E94C3160E94AC020E944701DF000E945D
:203360001A030E94C3160E94A1020C9455001E330B5042325F544F4E455F494F0E947301B9
:20338000D3190E94470180000E94AF010E94470110000E9423030E94470180000E94A10214
:2033A0000E948301E2190E94470180000E94AF010E944701E0000E941A030E94470180003D
:2033C0000E94A1020C9455007033024848000E94AF050E94BF050E94BF050E94DC050E9437
:2033E000A2100C945500CA33042E484558000E9458030E94AF010E94D0020E94F0050E9416
:20340000DF030E94470110000E944C040E9454100E94C506013A0E94F5020E94E7190E9453
:2034200008030E94470100010E94A0040E94F5020E94E7190E9408030E94E7190E94E3033E
:203440000E9408030E94E3030E94C6030E94C6030E94470100000E94E7190E94D0020E94BF
:2034600083013E1A0E942E050E94F5020E94E7190E94C6030E94E3030E94FD020E945901D0
:20348000321A0E94EE020E94F7030E944701FF000E941A030E94E7190E94F5020E944701E5
:2034A00010000E94F4090E947301671A0E94470110000E940A040E94FD020E944701100081
:2034C0000E94E3030E94FD020E948301FF190E94D5030E94B4020E9458030E94A4010C94CF
:2034E0005500E833042E686578000E9458030E94AF010E94D0020E94F0050E94DF030E9465
:20350000470120000E944C040E9454100E94C506013A0E94F5020E94E7190E9408030E9419
:20352000470100010E94A0040E94F5020E94E7190E9408030E94E7190E94E3030E9408033D
:203540000E94E3030E94C6030E94C6030E94470100000E94E7190E94D0020E948301BC1A11
:203560000E942E050E94F5020E94E7190E94C6030E94E3030E94FD020E945901B01A0E943F
:20358000EE020E94F7030E944701FF000E941A030E94E7190E94F5020E94470120000E9410
:2035A000F4090E947301E51A0E94470120000E940A040E94FD020E94470120000E94E3030C
:2035C0000E94FD020E9483017D1A0E9454100E94C5060B3A303030303030303146460E9426
:2035E00054100E94D5030E94B4020E9458030E94A4010C945500E434097661726961626C5A
:2036000065730E9458030E94AF010E94F0050E94B2030E948A070E9486030E94AF010E9443
:20362000BC030E947301851B0E94F5020E949D070E94F5020E94E9090E94FD020E94B7010E
:203640000E94F5020E94470100F00E941A030E94470100D00E941D040E947301341B0E94B4
:20366000E5120E9483014C1B0E9447010E940E941D040E947301491B0E94F5020E94E909D0
:203680000E94FD020E94B7010E949B030E9483014C1B0E94470100000E94F5020E947301C9
:2036A0007C1B0E94F5020E94470188060E941D040E9473017C1B0E9454100E944701020000
:2036C0000E940E050E94F5020E94BE100E94F5020E94A2030E94BE100E94F5020E94D001D0
:2036E0000E94BE100E94B6100E94D7100E9408030E94B7010E94BE100E94D5030E94EF09DE
:203700000E94B7010E9483010F1B0E94EE020E9458030E94A4010C945500F835026921007B
:203720000E9412020C9455001C37024921000E948B030E94AF010E94E3090E944701000223
:203740000E9458040E947301AA1B0E9412020E948301C31B0E9454100E94C5062445525256
:203760004F52233033203A20E7B3BBE7B5B1E58D80E59F9FE7A681E6ADA2E5AFABE585A560
:2037800021000E94280D0C9455002A3706464F52474554000E944D0C0E94F5020E94470190
:2037A00079380E94470100020E9458040E947301311C0E94EF090E94F5020E948B030E9406
:2037C000A4010E94B7010E94F5020E9486030E94A4010E9496030E94A4010E9452030E94C4
:2037E000AF010E9486030E94AF010E949D070E94F4090E9473012C1C0E9452030E94AF0110
:203800000E94470130110E941D040E9473010D1C0E94EE020E9483012C1C0E9454100E94D3
:20382000C50626E68F90E986922120E5B7B2E887AAE58B95E782BAE682A8E58F96E6B68883
:20384000205455524E4B455920000E94470130110E9452030E94A4010E94090D0E948301AF
:20386000351C0E94EE020E943C1C0C9455008C37065345414C4544000E9454100E94C5068C
:20388000214552524F52233034203A20E7A681E6ADA2E7A7BBE999A4E7B3BBE7B5B1E5AD96
:0A38A00097210E94280D0C9455009A
:207800000C94343C0C94513C0C94513C0C94513C0C94513C0C94513C0C94513C0C94513C1D
:207820000C94513C0C94513C0C94513C0C94513C0C94513C0C94513C0C94513C0C94513CE0
:207840000C94513C0C94513C0C94513C0C94513C0C94513C0C94513C0C94513C0C94513CC0
:207860000C94513C0C94513C11241FBECFEFD8E0DEBFCDBF11E0A0E0B1E0ECE9FFE702C07E
:2078800005900D92A230B107D9F712E0A2E0B1E001C01D92AD30B107E1F70E942D3D0C94CC
:2078A000CC3F0C94003C982F9595959595959595905D8F708A307CF0282F295A8091C000B5
:2078C00085FFFCCF9093C6008091C00085FFFCCF2093C6000895282F205DF0CF982F8091CF
:2078E000C00085FFFCCF9093C6000895EF92FF920F931F93EE24FF2487018091C00087FD7B
:2079000017C00894E11CF11C011D111D81E4E81682E4F8068FE0080780E0180770F3E09106
:207920000401F091050109958091C00087FFE9CF8091C6001F910F91FF90EF9008950E949A
:20794000763C982F8091C00085FFFCCF9093C60091362CF490330CF09053892F08959755DB
:20796000892F08951F930E949F3C182F0E949F3C1295107F810F1F9108951F93182F882308
:2079800021F00E94763C1150E1F71F9108951F93182F0E94763C803249F0809103018F5FC1
:2079A000809303018530C1F01F9108958091C00085FFFCCF84E18093C6008091C00085FF4A
:2079C000FCCF1093C6008091C00085FFFCCF80E18093C6001F910895E0910401F0910501CF
:2079E00009951F9108950E94763C803241F0809103018F5F80930301853081F00895809177
:207A0000C00085FFFCCF84E18093C6008091C00085FFFCCF80E18093C6000895E0910401AC
:207A2000F09105010995089540E951E08823A1F02D9A28EE33E0FA013197F1F72150304072
:207A4000D1F72D9828EE33E0FA013197F1F721503040D1F7815061F708953F924F925F92B3
:207A60006F927F928F929F92AF92BF92CF92DF92EF92FF920F931F93CF93DF93000080E1A3
:207A80008093C4001092C50088E18093C10086E08093C2005098589A259A81E00E94143D43
:207AA00024E1F22E9EE1E92E85E9D82E0FE0C02E10E1B12EAA24A394B1E49B2EA6E58A2E44
:207AC000F2E57F2EE0E26E2E79E4572E63E5462E50E5352E0E94763C8033B1F18133B9F187
:207AE000803409F46FC0813409F476C0823409F485C0853409F488C0803531F1823521F128
:207B0000813511F1853509F485C0863509F48DC0843609F496C0843709F403C1853709F46A
:207B200072C1863709F466C0809103018F5F80930301853079F6E0910401F0910501099559
:207B40000E94763C803351F60E94F33CC3CF0E94763C803249F78091C00085FFFCCFF0928C
:207B6000C6008091C00085FFFCCF9092C6008091C00085FFFCCF8092C6008091C00085FFEA
:207B8000FCCF7092C6008091C00085FFFCCF6092C6008091C00085FFFCCF5092C6008091A1
:207BA000C00085FFFCCF4092C6008091C00085FFFCCF3092C6008091C00085FFFCCFB09214
:207BC000C60088CF0E94763C863808F4BDCF0E94763C0E94F33C7ECF0E94763C803809F473
:207BE0009CC0813809F40BC1823809F43CC1883909F48FC080E00E94C73C6CCF84E10E949F
:207C0000BD3C0E94F33C66CF85E00E94BD3C0E94F33C60CF0E94763C809306010E94763CA3
:207C2000809307010E94F33C55CF0E94763C803309F41DC183E00E94BD3C80E00E94C73C4F
:207C400049CF0E94763C809309020E94763C8093080280910C028E7F80930C020E94763C88
:207C6000853409F415C18091080290910902892B89F000E010E00E94763CF801E85FFE4F53
:207C800080830F5F1F4F80910802909109020817190788F30E94763C803209F045CF8091E0
:207CA0000C0280FF01C16091060170910701660F771F7093070160930601A0910802B091E8
:207CC00009021097C9F0E8E0F1E09B01AD014E0F5F1FF999FECF32BD21BD819180BDFA9A6C
:207CE000F99A2F5F3F4FE417F50799F76A0F7B1F70930701609306018091C00085FFFCCF16
:207D0000F092C6008091C00085FFFCCFB092C600E1CE83E00E94C73CDDCE82E00E94C73C8A
:207D2000D9CE0E94763C809309020E94763C809308028091060190910701880F991F909306
:207D40000701809306010E94763C853409F4A6C080910C028E7F80930C020E94763C80323E
:207D600009F0B8CE8091C00085FFFCCFF092C600609108027091090261157105B9F140E05F
:207D800050E080910C02A82FA170B82FB27011C0BB2309F45CC0E0910601F0910701319613
:207DA000F0930701E09306014F5F5F4F46175707E8F4AA2369F3F999FECF209106013091CA
:207DC000070132BD21BDF89A90B58091C00085FFFCCF9093C6002F5F3F4F30930701209354
:207DE00006014F5F5F4F4617570718F38091C00085FDE5CE8091C00085FFF8CFE0CE81E029
:207E00000E94C73C67CE0E94763C803209F08CCE8091C00085FFFCCFF092C6008091C000F6
:207E200085FFFCCFE092C6008091C00085FFFCCFD092C6008091C00085FFFCCFC092C6003B
:207E40008091C00085FFFCCFB092C60043CEE0910601F091070194918091C00085FFFCCFA3
:207E60009093C6009CCF80E10E94C73C33CE0E94763C0E94763C182F0E94763C112309F433
:207E800083C0113009F484C08FE00E94C73C22CE80910C02816080930C02E5CE80910C0226
:207EA000816080930C0259CF809107018823880F880B8A2180930B0280910601909107019E
:207EC000880F991F90930701809306018091080280FF09C0809108029091090201969093AA
:207EE000090280930802F894F999FECF1127E0910601F0910701C8E0D1E0809108029091A1
:207F00000902103091F40091570001700130D9F303E000935700E895009157000170013067
:207F2000D9F301E100935700E895099019900091570001700130D9F301E000935700E8954C
:207F40001395103498F011270091570001700130D9F305E000935700E8950091570001707A
:207F60000130D9F301E100935700E8953296029709F0C7CF103011F00296E5CF11248091F8
:207F8000C00085FFB9CEBCCE8EE10E94C73CA2CD85E90E94C73C9ECDF894FFCF8000FFFFB3
:207FA000FC018991999143E016D041E114C0FC0189919991DC018991999160E80D901D908D
:207FC00041E009D032966250C9F7E058F04045E002D041E100C017B710FDFDCF47BFE89502
:027FE000089502
:00000001FF